:100000000C94F8020C9420030C9420030C9420030D
:100010000C9420030C9420030C9420030C942003D4
:100020000C9420030C9420030C9420030C942003C4
:100030000C9420030C9420030C9420030C942003B4
:100040000C9499220C9420030C9420030C9420030C
:100050000C9420030C9420030C9420030C94200394
:100060000C9420030C9420034602000000FF0800BB
:10007000053E5B4F5B3E053E6B4F6B3E051C3E7C79
:100080003E1C05183C7E3C18051C577D571C051C62
:100090005E7F5E1C0400183C1805FFE7C3E7FF0401
:1000A0000018241805FFE7DBE7FF0530483A060E85
:1000B00005262979292605407F05050705407F0586
:1000C000253F055A3CE73C5A057F3E1C1C080508A5
:1000D0001C1C3E7F0514227F221405FFFFFFFFFF3B
:1000E00005F0F0F0F0F003FFFFFF05000000FFFF58
:1000F000050F0F0F0F0F0508047E04080510207E62
:1001000020100508082A1C0805081C2A080805AA4A
:10011000005500AA05AA55AA55AA0530383E383020
:1001200005060E3E0E06020000015F0307000705EC
:10013000147F147F1405444AFF4A32056313086490
:10014000630536494936480107033E4141034141B1
:100150003E05082A1C2A080508083E08080260E037
:100160000408080808026060056010080403053EE2
:100170005149453E0304027F0571494949460541FD
:1001800049494936050F0808087F054F4949493153
:10019000053E4949493005030101017F05364949BA
:1001A000493605064949493E026C6C026CEC03086D
:1001B0001422041414141403221408050159090903
:1001C00006053E415D594E057E0909097E057F49B8
:1001D000494936053E41414141057F4141413E0586
:1001E0007F49494941057F09090901053E414149C6
:1001F00079057F0808087F03417F4105304141416F
:100200003F057F08142241057F40404040057F02A2
:100210000C027F057F0408107F053E4141413E05E9
:100220007F09090906053E4141617E057F091929BB
:10023000460546494949310501017F0101053F4015
:1002400040403F051F2040201F053F4038403F05EC
:1002500063140814630503047804030561514945D8
:1002600043037F41410503040810600341417F05BA
:100270000402010204048080808003010204043827
:1002800044447C047F44443804384444440438449F
:10029000447F043854545804047E05010418A4A46F
:1002A0007C047F040478017D0384857C047F10280E
:1002B00044017F057C04780478047C0404780438C5
:1002C00044443804FC24241804182424FC047C042A
:1002D0000408045854543403047F04043C40407C14
:1002E000041C20407C053C4030403C046C10106CE9
:1002F000041CA0A07C046454544C04083641410101
:100300007F04414136080402010201057F41414159
:100310007F053E55555541053844443844057C2AEF
:100320002A3E14057E0202060605027E027E0205B2
:100330006355494163053844443C0405407E201E12
:10034000200506027E0202086313086463006060F1
:10035000052A2A2A2A2A03514A4403444A510500FD
:1003600000FF010303E080FF053612362436030246
:100370000502021818021010053040FF0101041F89
:1003800001011E000000000901017F017F020C0233
:100390007F0000000000000100017D0418247E247D
:1003A00004447E454105221C141C2205012A7C2A96
:1003B000010177044E55553903020002077E81BDC5
:1003C000A5A5817E0326292F0508142A14220408D6
:1003D00008081803080808077E81BD95A9817E05D5
:1003E00001010101010302050203242E2403191552
:1003F000120315150A02020104F8204078050609C7
:100400007F017F021818040080A0C003121F100390
:100410002629260522142A140808402F1008041E35
:10042000117C08402F10080462554C0915553F10E7
:1004300008041E117C053048484D400578151614F7
:1004400078057814161578057A1514157A05781636
:10045000151679057815141578057814151478078C
:100460007E09097F494941059EA1612121057C54EE
:10047000554644057C54564544057E55544546052D
:100480007C5554454403457E4403447E4503467DE4
:100490004603457C4505087F49413E057C0A1122FB
:1004A0007D053844454638053844464538053A45C3
:1004B00044453A05384645463905384544453805EA
:1004C0002214081422057C625A463E053C404142F3
:1004D0003C053C4042413C053C4241423C053C41DC
:1004E00040413C0502047A0502043F12120C057ECD
:1004F00049494E30043845467C043844467D04382A
:1005000046457E043A45467D043845447D04304ADC
:100510004D7A0720545438545458049CA262220443
:10052000385556580438545659043856555A0438D4
:1005300055545902017A027A0103027902030278C2
:100540000204304B4B3C047A090A710430494A30AA
:100550000430484A3104304A49320432494A3104AD
:10056000394444390508082A08080438544C38042A
:10057000384142780438404279043842417A043A9A
:1005800040407A0418A0A27904FC282810041AA07C
:10059000A07A00000000240027002A0000000000CC
:1005A000250028002B000000000023002600290061
:1005B0000404040404040404020202020202030309
:1005C0000303030301020408102040800102040811
:1005D00010200102040810200000000800020100A1
:1005E0000003040700000000000000005F257A25DA
:1005F00011241FBECFEFD8E0DEBFCDBF11E0A0E0D9
:10060000B1E0E6E2FAE502C005900D92AC34B10724
:10061000D9F721E0ACE4B1E001C01D92A439B207E2
:10062000E1F712E0C7EFD2E004C02197FE010E947B
:10063000F328C63FD107C9F70E94E3220C94062D88
:100640000C940000829590E09C0135952795359596
:1006500027952373880F991F880F991F8C7C282B4F
:1006600030E0C901959587958575220F331F2A7A49
:10067000822B0895EF92FF920F931F93FC0180A5A8
:10068000882331F0A5A1B6A19D967C936E939C978B
:1006900080A5882331F0A5A1B6A157965C934E930F
:1006A000569780A5882371F0A5A1B6A118963C9312
:1006B0002E9317971A963C932E9319971C961C927B
:1006C0001E921B9780A5882349F005A0F6A1E02D76
:1006D000118F008FF38EE28E168615861F910F9173
:1006E000FF90EF900895CF93DF93262F2695382F14
:1006F00070E0680F791FFC018E2F831B821750F466
:10070000819161507109DB019C91EF0121979883E0
:100710008C93F2CFDF91CF910895482FFC018E2F5B
:10072000841B8617E0F4219130E0C90195958795E7
:100730008575220F331F2A7A822B90E09C01359514
:100740002795359527952373880F991F880F991F33
:100750008C7C822B8295DF0111978C93E0CF0895DA
:10076000833081F028F4813099F08230A9F0089527
:100770008730A9F08830C9F08430B1F480918000CE
:100780008F7D03C0809180008F77809380000895D3
:1007900084B58F7784BD089584B58F7DFBCF80911C
:1007A000B0008F778093B00008958091B0008F7D66
:1007B000F9CFCF93DF93282F30E0F901E852FA4FB9
:1007C0008491F901EC53FA4FD491F901E055FA4FB5
:1007D000C491CC23A1F081110E94B003EC2FF0E072
:1007E000EE0FFF1FEA55FA4FA591B491EC91ED235E
:1007F00081E090E009F480E0DF91CF91089580E0FE
:1008000090E0FACF1F93CF93DF93282F30E0F901C8
:10081000E852FA4F8491F901EC53FA4FD491F9015F
:10082000E055FA4FC491CC23A9F0162F81110E94F4
:10083000B003EC2FF0E0EE0FFF1FE456FA4FA59146
:10084000B4918FB7F894EC91111108C0D095DE23C4
:10085000DC938FBFDF91CF911F910895DE2BF8CFEE
:10086000CF93DF9390E0FC01EC53FA4F2491805535
:100870009A4FFC0184918823D1F090E0880F991F52
:10088000FC01EE56FA4FA591B491FC01E456FA4FE3
:10089000C591D491623071F49FB7F8943C91822F46
:1008A000809583238C93E8812E2B28839FBFDF9133
:1008B000CF9108958FB7F894EC912E2B2C938FBF86
:1008C000F6CF3FB7F89480918C0190918D01A09163
:1008D0008E01B0918F0126B5A89B05C02F3F19F05E
:1008E0000196A11DB11D3FBFBA2FA92F982F8827B0
:1008F000BC01CD01620F711D811D911D42E0660F8B
:10090000771F881F991F4A95D1F708958F929F925C
:10091000AF92BF92CF92DF92EF92FF926B017C0178
:100920000E9461044B015C01C114D104E104F10493
:10093000B9F00E946104681979098A099B09683E27
:1009400073408105910580F321E0C21AD108E108C6
:10095000F10888EE880E83E0981EA11CB11CE4CF3C
:10096000FF90EF90DF90CF90BF90AF909F908F90CF
:100970000895CF92DF92EF92FF921F93CF93DF9370
:10098000DC0158961C92589788E059968C93599799
:100990005A961C925A975C961C921E925B978FEF08
:1009A00090E05E969C938E935D9790961C921E921B
:1009B0005F9756968D919C915797009709F478C050
:1009C000FC012491263409F031C03196E491E130E4
:1009D00009F453C022E030E0E23021F5FC01329608
:1009E00024913196E49130E0322F22272E0F311DD1
:1009F0005C963C932E935B97FC0134962491319640
:100A0000E49130E0322F22272E0F311D5E963C9369
:100A10002E935D97FC013696E4915996EC93599785
:100A200027E030E090963C932E935F975F96CD90B1
:100A3000DC909097F12CE12C5B962D913C915C978A
:100A40005D96CD91DC915E9710E0C217D30770F1EF
:100A5000FC01EC0DFD1D4491141708F4142F50E017
:100A600070E060E04F5F5F4F6F4F7F4FC40ED51E49
:100A7000E61EF71E2F5F3F4FE8CFFC013296E49150
:100A8000F0E05C96FC93EE935B97FC013396E49167
:100A9000F0E05E96FC93EE935D97FC013496E49152
:100AA0005996EC93599725E030E0BCCF5A961C93A9
:100AB000DF91CF911F91FF90EF90DF90CF9008953D
:100AC000FC018385681738F52485358579E0679FB3
:100AD000200D311D1124848150E09381992371F000
:100AE000882331F087E090E0FC01E41BF50BAF01B7
:100AF000240F351FF90180810C942203882331F0E3
:100B000087E090E0BC01641B750BAB01240F351F1F
:100B1000F9018081089580E008958F929F92AF92AD
:100B2000BF92CF92DF92EF92FF92CF93DF93FC01BF
:100B3000242F30E08381882309F447C087E090E0C8
:100B4000821B930B91E001C0990F8A95EAF7838588
:100B5000681708F040C024853585A90189E0689FA1
:100B6000400D511D1124BA01E48130E020E080E005
:100B7000A7E0B0E0C12CD12C7601C394F22FAD01D7
:100B8000421B530BE11101C0A901460F571FEA0197
:100B90004881492351F04601570104C0880C991C33
:100BA000AA1CBB1CFA95D2F788292F5F3F4F28302B
:100BB000310521F7DF91CF91FF90EF90DF90CF903B
:100BC000BF90AF909F908F90089591E001C0990FD2
:100BD0004A95EAF7BCCF80E0EDCFFC0122812111DC
:100BE0000C948D050C946005462F477023E0769594
:100BF00067952A95E1F70C94ED05FC01848D90A191
:100C0000A6A5B7A591FD15C0882381F0808D918D93
:100C10000597A9F481E024A535A52A173B0709F01B
:100C200080E080AB1197B7A7A6A70895828D938D1A
:100C3000EFCF882379F0808D918D059759F7CD01FD
:100C4000019697A786A781E011969C91911180E06B
:100C500080AB0895828D938DF0CFFC0186899789B2
:100C60008230910591F42389348936A325A331A7D5
:100C700020A78230910561F42189328933A722A708
:100C8000029749F08FEF87A3089521893289EDCF2C
:100C900023893489F3CF81E0F6CFCF93DF9300D05F
:100CA000CDB7DEB769831A82DC01ED91FC91008437
:100CB000F185E02DBE016F5F7F4F099581E090E0E7
:100CC0000F900F90DF91CF9108958EBD00000DB46D
:100CD00007FEFDCF8EB50895089590E080E0089559
:100CE000FC01438550E0440F551F70E060E08685AD
:100CF00097850C94272ACF92DF92EF92FF920F9361
:100D00001F93CF93DF93EC0188858823A1F0809116
:100D10005A01882361F08FB7F89490915A0191306D
:100D200021F59DB3909359019DB39DBB8FBF80E585
:100D30008CBD81E08DBD60E08F810E9402048885BA
:100D400010E000E08823A1F08B8590E0880F991FC8
:100D50000817190798F5EE85FF85E00FF11F8081D0
:100D60000E9465060F5F1F4FEFCF80935901DFCFC1
:100D70008B8590E0880F991F08171907F8F4EE8506
:100D8000FF85E00FF11FE080DE80CD8088E0F82E47
:100D90006E2D661F6627661F8C2D0E940204EE0CC6
:100DA00061E08D2D0E94020460E08D2D0E940204FE
:100DB000FA94F110EDCF0F5F1F4FDACF61E08F8112
:100DC0000E9402048885882371F080915A0188234B
:100DD00051F09FB7F89420915A0180915901213028
:100DE00059F48DBB9FBFDF91CF911F910F91FF9061
:100DF000EF90DF90CF9008958FBFF5CFBF92CF9245
:100E0000DF92EF92FF920F931F93CF93DF93FC013A
:100E10002385621708F04EC0EC01F9E06F9F700166
:100E20001124D12CC12C062F10E0BB24B394BC0C90
:100E3000EC85FD85EE0DFF1D808590E00C2C02C039
:100E4000959587950A94E2F780FF27C0CE010E940E
:100E500070068B858150990B801B910B880F991F11
:100E60002E853F85820F931FFC01B082EC85FD85A6
:100E7000EE0DFF1DEC0DFD1D40818B858150990B02
:100E8000801B910B880F991F2E853F85820F931F22
:100E9000FC014183CE010E947B06FFEFCF1ADF0ADF
:100EA00088E0C816D10409F68C859D85E80EF91EE8
:100EB000F7011086DF91CF911F910F91FF90EF9076
:100EC000DF90CF90BF9008950F931F93CF93DF9340
:100ED000EC01162F042F822F9B8191110E94220377
:100EE00099E0199F90011124AC85BD85A20FB31F15
:100EF000602F70E09C8147E050E0461B570B91113A
:100F000001C0AB01A40FB51F8C93EC85FD85E20FEA
:100F1000F31F20858C818823F1F047E050E0461BC9
:100F2000570B81E090E0A0E0B0E004C0880F991F6B
:100F3000AA1FBB1F4A95D2F7822B80878C898823F2
:100F400021F0612FCE010E94FE0681E0DF91CF915A
:100F50001F910F91089581E090E0A0E0B0E004C0FF
:100F6000880F991FAA1FBB1F0A95D2F7E5CF9F9242
:100F7000AF92BF92CF92DF92EF92FF920F931F93A7
:100F8000CF93DF93FC0189E0689FE001112481E0A9
:100F900090E0A0E0B0E06C017D01042E04C0CC0C18
:100FA000DD1CEE1CFF1C0A94D2F7BC2C7C2D709526
:100FB00007E010E0041B110904C0880F991FAA1F45
:100FC000BB1F0A95D2F7A82E382F309590E080E00D
:100FD000022F10E027E0E22EF12CAC01A485B585AC
:100FE000AC0FBD1F248193806801082E02C0D594E8
:100FF000C7940A94E2F7C0FE2AC0222319F0A70181
:10100000481B590BA40FB51F2C914B2D91104A2D45
:10101000242B2C93019688309105F9F684859585CB
:10102000C80FD91F8FEF88878489882319F0CF01D3
:101030000E94FE0681E0DF91CF911F910F91FF90FA
:10104000EF90DF90CF90BF90AF909F9008952223B4
:1010500019F0A701481B590BA40FB51F2C91472F5E
:101060009110432F2423D5CFFC0152813385552382
:1010700021F0631730F40C94B707631710F40C9445
:10108000640780E00895242F462F477033E076955B
:1010900067953A95E1F70C943408FC015281338549
:1010A000552331F0631750F4483041F00C94640735
:1010B000631720F4483011F00C94B70780E00895CE
:1010C000CF92DF92EF92FF920F931F93CF93DF9314
:1010D000FC01722F82815385882309F45DC0651756
:1010E00008F0BEC0283009F4BBC009E0609F700161
:1010F0001124848595858E0D9F1D50E0A22FB0E0B0
:1011000024812223B9F127E030E0E901C41BD50B8B
:10111000AE012A1B3B0B480F591FEA014881820F81
:10112000931FEC01488384859585E701C80FD91F7B
:1011300028858481882301F147E050E04A1B5B0B3E
:1011400081E090E0A0E0B0E004C0880F991FAA1FE2
:10115000BB1F4A95D2F7822B88878489811118C0DA
:1011600081E0DF91CF911F910F91FF90EF90DF9081
:10117000CF9008959D01CFCF81E090E0A0E0B0E056
:1011800004C0880F991FAA1FBB1F7A95D2F7E3CF1F
:10119000CF010E94FE06E4CFA42FB0E093819923F3
:1011A00009F44FC027E030E02A1B3B0B91E001C05F
:1011B000990F2A95EAF76517A0F6783091F2D9E0F1
:1011C0006D9FA001112401E010E020E030E06801F3
:1011D0007901072E04C0CC0CDD1CEE1CFF1C0A9408
:1011E000D2F7DC2DCC2DC095A7E0B0E0A71BB1094C
:1011F00004C0000F111F221F331FAA95D2F7F02E33
:10120000009530E020E0A485B585A40FB51FA20F9E
:10121000B31F8C917381182F1923D9F0711117C046
:101220007D2F872B8C932F5F3F4F2830310559F747
:1012300084859585480F591F8FEFDA0118968C9396
:101240008CCF91E001C0990F4A95EAF7B4CF7F2D7A
:10125000E8CF711103C07C2F8723E4CF702FFCCF20
:1012600080E07FCF8F929F92AF92BF92CF92DF921A
:10127000EF92FF920F931F93CF93DF93CDB7DEB71B
:1012800028970FB6F894DEBF0FBECDBF8C01D62EC7
:1012900029E0629F70011124FA013197E730F105CE
:1012A00058F4EB5AF64F0C94F328A809DA09100AFF
:1012B000470A880AC80AE80ADC0112968C9188233A
:1012C000C1F130E020E0D8011C96ED91FC911D9712
:1012D000EE0DFF1DE20FF31F808113969C91992361
:1012E00031F190E09595879580832F5F3F4F2830AF
:1012F000310549F7F80184859585E80EF91E8FEFD1
:10130000D70118968C9381E028960FB6F894DEBF2B
:101310000FBECDBFDF91CF911F910F91FF90EF9046
:10132000DF90CF90BF90AF909F908F900895880FDF
:10133000DBCF87E090E0D8011C96ED91FC91EE0D9B
:10134000FF1DE80FF91F208121830197A0F7D2CF5D
:10135000FC0182818823E1F030E020E0D8011C9676
:10136000ED91FC911D97EE0DFF1DE20FF31F8081A3
:1013700013969C91992341F0880F80832F5F3F4FF4
:101380002830310559F7B6CF90E095958795F5CF80
:1013900081E090E0D8011C96ED91FC91EE0DFF1DCF
:1013A000E80FF91F2081319720830196883091053D
:1013B00089F7A0CFFC01C28085898823F9F040E03D
:1013C000C801CC20C1F00E9460058983CC20C1F007
:1013D00020E0CC24C394C20E4C2D6D2DC8010E9478
:1013E00060082C2D2730A9F7298147E06D2DC80111
:1013F0000E944D087FCF0E948D05E7CF1982E6CF6E
:1014000087E090E0D8011C96ED91FC91EE0DFF1D58
:10141000E80FF91F2081220F2083019798F7E4CF6E
:10142000FC01C28085898823D9F047E0C801CC201F
:10143000A1F00E9460058983CC20A1F028E0CC2493
:10144000CA94C20E4C2D6D2DC8010E9460082C2D2F
:10145000C110F5CF298140E0C9CF0E948D05EBCFA7
:101460001982EACF30E020E0D8011C96ED91FC9182
:10147000EE0DFF1DE20FF31F808190E0959587959B
:1014800080832F5F3F4F2830310571F7E3CFFC0198
:1014900082818823C1F0B12CA12CD8011C96CD905B
:1014A000DC90CE0CDF1CCA0CDB1CF60180810E9494
:1014B0002203D6018C93BFEFAB1ABB0AE8E0AE164D
:1014C000B10459F717CF30E020E047E050E0D801F1
:1014D0001C968D919C918E0D9F1DFC01E20FF31FB8
:1014E000D080BA01621B730B860F971FDC018C91B1
:1014F0008083D8011C96ED91FC91EE0DFF1DE60F47
:10150000F71FD0822F5F3F4F2430310501F7F2CE15
:10151000FC018281882329F130E020E047E050E09F
:10152000D8011C968D919C918E0D9F1DFC01E20FA0
:10153000F31FD080BA01621B730B860F971FDC016B
:101540008C918083D8011C96ED91FC91EE0DFF1DCE
:10155000E60FF71FD0822F5F3F4F2430310501F790
:10156000C9CEB12CA12CF801C484D584CE0CDF1CCB
:10157000CA0CDB1CD6018C910E942203F6018083E9
:10158000FFEFAF1ABF0A28E0A216B10461F7B2CE8E
:10159000CE0101965C014C0187E0C82E4C2D6D2DCB
:1015A000C8010E94ED05D4018D934D01CA94BFEF8F
:1015B000CB12F4CFC12CF50121915F014C2D6D2D83
:1015C000C8010E944D08C394F8E0CF12F4CF92CE28
:1015D00090E080E0D8011C96ED91FC91EE0DFF1D8E
:1015E000E80FF91F2081209520830196883091050E
:1015F00089F780CECF92DF92EF92FF920F931F93E5
:10160000CF93DF93EC01DD24D394F12CE12C01E0A6
:1016100010E0B9E0CB2ECE010E94700698010E2C8E
:1016200002C0220F331F0A94E2F7E0E090E08B85BE
:10163000E81798F5EC9DA0011124AC85BD85A40F99
:10164000B51F18966C9170E062237323672B19F114
:101650006E2F70E08150990B861B970B880F991F96
:10166000AE85BF85A80FB91FDC92AC85BD85A40FE0
:10167000B51FAE0DBF1DFC918B858150990B861B4C
:10168000970B880F991F4E855F85840F951FDC018E
:101690001196FC9391E0EF5FCACF992319F0CE0128
:1016A0000E947B06BFEFEB1AFB0AD39488E0E81692
:1016B000F10409F0B0CF80E099E02B85821748F45F
:1016C000EC85FD85899FE00DF11D112410868F5F4B
:1016D000F4CFDF91CF911F910F91FF90EF90DF90AA
:1016E000CF900895CF93DF93C9E078E05FEF46177E
:1016F000B0F06C9F90011124FC01A485B585A20F68
:10170000B31FFD01D72F1192DA95E9F7DC011C9682
:10171000ED91FC91E20FF31F50876F5FE8CFFC0162
:101720002489222321F0DF91CF910C94FA0ADF91D2
:10173000CF9108956F927F928F929F92AF92BF92B6
:10174000CF92DF92EF92FF920F931F93CF93DF938D
:10175000CDB7DEB729970FB6F894DEBF0FBECDBF69
:101760008C01E62EF42E5901D12C461708F4D7C06F
:10177000DC015496DC90549754961C922430310529
:10178000B8F522303105D0F52130310509F4DDC03E
:10179000D80155968C91882309F487C0B8E0FB9E48
:1017A000B0011124695F7F4FC8010E94F405C82E63
:1017B000AE2CB12C8F2D0F2C000C990B8A159B058C
:1017C0000CF48AC050E040E06F2DC8010E9432093D
:1017D00099249A949F0C47E0692DC8010E94ED0559
:1017E000282F40E06F2DC8010E943408F92CE2CF69
:1017F0002430310561F02830310550F6A5016E2DF9
:10180000C8010E943209E394FE14C0F77FC0642F20
:1018100070E0AE2CB12C4B018A189B08BFEF8B1ADD
:101820009B0A97FE03C0EFEF8E1A9E0A9594879449
:10183000712C29E0C22E472D50E0481559050CF0B7
:10184000D2C0F80124853585FA01EA0DFB1DCE9E34
:10185000C001CF9E900D1124820F931FFC01DE0169
:1018600011966C2C01900D926A94E1F7FB01E41B38
:10187000F50BCE9EA001CF9E500D1124F901E40F6F
:10188000F51FDC018C2D01900D928A95E1F7F8018E
:10189000A485B585A40FB51FFE0131968C2D01904E
:1018A0000D928A95E1F77394C6CFF801A288B388A8
:1018B000A114B10479F0F8E0FF9EB0011124695F32
:1018C0007F4FC8010E94F405482F70E060E08F2D23
:1018D000F5010995C12C6CCFD8015096ED91FC9182
:1018E0005197309749F055968C91811105C070E061
:1018F00060E08E2D0995C82EB50183E0660F771F35
:101900008A95E1F74C2DC8010E944308D8015496EE
:10191000DC92DD2009F471C0C8010E94FA0A8D2D05
:1019200029960FB6F894DEBF0FBECDBFDF91CF91E1
:101930001F910F91FF90EF90DF90CF90BF90AF90ED
:101940009F908F907F906F900895FC0185898823E8
:10195000B1F1F8E06F9FB0011124C8010E94F405B5
:10196000C82E41E050E06E2DC8010E943209BB2410
:10197000B394BE0C40E06B2DC8010E94ED05282FEA
:1019800047E06E2DC8010E943408EB2CFB1448F789
:10199000D8015096ED91FC915197309749F05596AA
:1019A0008C91811105C061E070E08F2D0995C82EE2
:1019B000B8E0FB9EB0011124695F7F4FA3CFA288DE
:1019C000B388A114B10469F0B8E06B9FB001112491
:1019D000C8010E94F405482F61E070E08E2DF501EA
:1019E0000995C12CBECF44E050E06E2DC8010E9485
:1019F0003209E394FE14B8F789CFDD24D3948FCF56
:101A0000CF93DF93EC014CA16BA1461720F08881A6
:101A100099810E94720B8D8D882351F027E030E070
:101A20004CA16BA188819981DF91CF910C949A0B85
:101A3000DF91CF910895CF92DF92EF92FF920F93B3
:101A40001F93CF93DF93EC01D62EC42E790180E053
:101A50004617E0F02A30310508F069C0CE010E9437
:101A6000700692E0E916F10409F453C0C0F4E114E1
:101A7000F10429F1F1E0EF16F10409F443C0D39425
:101A8000CD1478F7CE010E947B0681E0DF91CF91E3
:101A90001F910F91FF90EF90DF90CF90089583E01A
:101AA000E816F104E9F194E0E916F10441F781E068
:101AB0000115110509F480E0819599E006C081E0E7
:101AC0000115110509F080E09CE04D2D50E02B85BB
:101AD0002150330B241B350B220F331F6E857F855E
:101AE000260F371FF90190832B852150330B241BC0
:101AF000350B220F331F4E855F85240F351FF901EB
:101B00008183BDCF802F083011050CF087E09BE06A
:101B1000DCCF802F003111050CF08FE09AE0D5CF9B
:101B200081E00115110509F480E09FE0CECF81E04E
:101B30000130110509F080E0FBE0EF16F10449F0F7
:101B40008C8B0130110509F0A0CFCE010E94FA0A5A
:101B50009CCF8D8B9ACF0F931F939B018A01FC0121
:101B60004385415060E00E941B0D1F910F91089525
:101B70000F931F93FC0161A3062F10E022E030E0D9
:101B800044A163A1808191810E941B0D1F910F913F
:101B900008950F931F93CF93FC01A081B1815A96B2
:101BA000CC9186A9C80F83A98C17A0F48F0184A9B2
:101BB00095A9009711F00E949529F801C3AB8C2FCD
:101BC00090E0009711F481E090E00E94F928F8017C
:101BD00095AB84ABCF911F910F910895CF92DF9277
:101BE000EF92FF920F931F93CF93DF937C016B01D2
:101BF000EA01CA0101960E94F9288C010097F1F0D0
:101C0000AE01B6010E941E2AF801EC0FFD1F1082E2
:101C1000D701ED91FC910084F185E02DB801C70159
:101C20000995C8010E949529CE01DF91CF911F919E
:101C30000F91FF90EF90DF90CF900895D0E0C0E03B
:101C4000F3CFCF92DF92EF92FF920F931F93CF9338
:101C50006C017B01C42F8901DC01D196ED91FC91CF
:101C6000309709F1808191818E159F05C1F4028022
:101C7000F381E02D80818C1708F4C82F4C2F50E0A1
:101C8000BF016F5F7F4FC8010E941E2A8C2FCF912A
:101C90001F910F91FF90EF90DF90CF9008950480F7
:101CA000F581E02DDDCFF6018081918122AD33AD4C
:101CB000DC0156964D915C912417350751F02115A2
:101CC000310511F428E630E0FC01378B268B0E94A9
:101CD000B9040115110509F448C0D6012D913C91B4
:101CE000F901878D90A1B0E0A0E0438D548DE416FA
:101CF000F506A0F1658D768D6E157F0578F1668904
:101D00007789FB01E80FF91FE416F50659F0E49115
:101D10008E0F911DA11DB11D0196A11DB11D4F5F1B
:101D20005F4FEFCF4491C41710F50196A11DB11D6F
:101D3000A801801B910B642F601B6C1708F0A6CFC5
:101D4000BC01640F751FD9015696ED91FC91E60F09
:101D5000F71FE491DA01ED93AD01EDCF4C2F50E088
:101D600070E060E0C8010E94272AC0E08FCFC491D4
:101D7000DCCF1F93CF93DF93EC01142F2CA93DA947
:101D80004BA90E94210E112389F0882379F090E05D
:101D90002EA9921758F42BA9821730F4ECA9FDA9AB
:101DA000E80FF11D10828F5F9F5FF2CFDF91CF911F
:101DB0001F9108950F931F93CF93DF93EC018B0135
:101DC000EEA5FFA541E08181811101C040E0608165
:101DD00070E0CE010E94B90EF801808328A19C8D8D
:101DE00021FD10C0992359F0288D398D25303105FA
:101DF00081F4682F8CA99DA90E9473030AC02A8DC3
:101E00003B8DF4CF9923B9F0288D398D25303105DC
:101E100081F788A180FF06C0F80160818CA99DA987
:101E20000E948D03CE010E94FD0581E0DF91CF91DC
:101E30001F910F9108952A8D3B8DE8CF0F931F932B
:101E4000CF93DF93EC01FB011082ACA5BDA5BFA72A
:101E5000AEA7109719F08C91811108C081E088AB72
:101E600080E0DF91CF911F910F91089518AA8C8D7A
:101E700098A191FD10C0882359F0888D998D059700
:101E800081F40D900020E9F71297BFA7AEA709C013
:101E90008A8D9B8DF4CF882331F1888D998D05979C
:101EA00081F7AEA5BFA541E011968C9111978111E4
:101EB00001C040E08B016C9170E0CE010E94B90E30
:101EC000F801808328A19C8D21FD13C0992371F016
:101ED000288D398D2530310599F4682F8CA99DA95D
:101EE0000E9473030DC08A8D9B8DD9CF2A8D3B8DA7
:101EF000F1CF992399F0288D398D2530310569F777
:101F000088A180FF06C0F80160818CA99DA90E946C
:101F10008D03CE010E94FD0581E0A3CF2A8D3B8D6C
:101F2000ECCFCF92DF92EF92FF920F931F93CF935C
:101F3000DF93EC010E94000DC988DA887E0187E3F7
:101F4000E80EF11CB701CE010E941E0F19AE18AEAB
:101F500086018B899C89081719077CF18FA928AD08
:101F600039AD8217130611F081110AC01FAA88A982
:101F7000811104C0B701CE010E94DA0E19AE18AE6D
:101F80008FA9882331F38881998148AD59AD9A0191
:101F90002F5F3F4FECA9FDA9E40FF51F4D8D39AF21
:101FA00028AF442341F040814095B8010E94430886
:101FB00001501109CECF4081F8CFDF91CF911F9111
:101FC0000F91FF90EF90DF90CF900895FF920F93C5
:101FD0001F93CF93DF93EC01F62E8D859E854423CE
:101FE00009F462C08430910530F5019758F18D8570
:101FF0009E85059721F483E090E09E878D87CE0132
:102000000E94910F0DA11EA12FA18AA59BA5820F51
:10201000911D27FD9A9580179107E1F04D8D41950F
:10202000B801888199810E9443088FA1080F111D72
:1020300087FD1A95E9CF0597D1F285E090E09E875C
:102040008D872CC0CE010E942D0683E090E09E87F4
:102050008D87CDCFFF2069F06DA17EA106171707F0
:1020600041F04D8D81E048274195888199810E94FA
:1020700043088DA19EA12FA1022E000C330B4AA56F
:102080005BA5420F531F8417950721F445E050E0EC
:102090005E874D87820F931F9EA38DA3DF91CF9103
:1020A0001F910F91FF9008958430910500F50197DD
:1020B00000F1CE010E94910F08A519A56DA17EA186
:1020C0008FA1082E000C990B9B01280F391F201798
:1020D0003107B9F04D8D4195B801888199810E94F1
:1020E00043088FA1080F111D87FD1A95E7CF0597AB
:1020F00051F5CE010E942D0683E090E09E878D87EA
:10210000D8CFFF2079F02AA53BA5820F931F68172F
:10211000790741F04D8D81E048274195888199816B
:102120000E9443088DA19EA12FA1022E000C330B0B
:102130004AA55BA5420F531F8417950709F0AACF44
:1021400046E050E0A5CF86E090E079CFAF92BF9215
:10215000CF92DF92EF92FF920F931F93CF93DF9373
:10216000EC01F62E8D859E85442309F46EC08430E3
:10217000910580F50197A8F1CE010E94000DCE01D6
:102180000E94910FCBA088E0C89E60011124EE242C
:10219000E394F11002C050E8E52E0DA11EA18CA120
:1021A00090E0019643E0880F991F4A95E1F7C81621
:1021B000D906ACF5A880B980B601C5010E94F40526
:1021C000101624F5FF2001F1880F9D8D91118E29A5
:1021D0000150F6CF059781F285E090E09E878D87CC
:1021E00029C087E090E09EA38DA310E000E02BE0E3
:1021F00030E04CA16BA1888199810E941B0D83E086
:1022000090E09E878D87B8CF8695DFCF482FB601A7
:10221000C5010E9443088FEFC81AD80ABECF011526
:10222000110521F485E090E09E878D87015011090A
:102230001EA30DA3DF91CF911F910F91FF90EF90FF
:10224000DF90CF90BF90AF9008958430910560F5F6
:10225000019760F10BA188E0089F8001112430E80C
:10226000E32EF11002C0EE24E3948CA190E00196DD
:1022700023E0880F991F2A95E1F708171907FCF446
:10228000C880D980B801C6010E94F405482FFF20FC
:10229000A1F046958D8D81114E29B801C6010E948D
:1022A00043080F5F1F4FE1CF0597B1F41EA21DA297
:1022B00083E090E09E878D87CDCF440FEBCF8DA13B
:1022C0009EA18730910521F426E030E03E872D87DE
:1022D00001969EA38DA3AECF86E090E07FCFCF92F4
:1022E000DF92EF92FF921F93CF93DF93EC01D42EF6
:1022F0008D859E85662309F458C084309105A8F524
:102300000197D0F1CE010E94910F2DA13EA128305E
:10231000310569F1E8A4F9A481E090E001C0880FDB
:102320002A95EAF7182FD11010952FA18AA59BA501
:10233000820F911D27FD9A958E159F0549F1C88042
:10234000D980B701C6010E94F4059D8D412F9923C4
:10235000E9F04095482BB701C6010E9443088FA1C0
:10236000E80EF11C87FDFA94E0CF059759F285E05D
:1023700090E09E878D8711C0CE010E942D061EA27F
:102380001DA283E090E09E878D87BCCF4823E3CFDA
:102390008DA19EA101969EA38DA3DF91CF911F9148
:1023A000FF90EF90DF90CF9008958430910598F5DD
:1023B000019798F1CE010E94910F8DA19EA110E08E
:1023C00097FD05C011E001C0110F8A95EAF7E8A456
:1023D000F9A4D11010952FA18AA59BA5820F911D5C
:1023E00027FD9A958E159F0531F1C880D980B701D8
:1023F000C6010E94F4059D8D412F9923D1F040958F
:10240000482BB701C6010E9443088FA1E80EF11CBA
:1024100087FDFA94E0CF0597C1F4CE010E942D0606
:1024200087E090E09EA38DA383E090E09E878D8758
:10243000C1CF4823E6CF8DA19EA197FF04C026E01F
:1024400030E03E872D870197A6CF86E090E091CFC0
:10245000FF920F931F93CF93DF93EC01F42E8D85A2
:102460009E85662309F444C08430910538F50197B0
:1024700060F1CE010E94910F2DA13EA18AA59BA5DE
:1024800028173907E9F008A519A58FA1082E000C17
:10249000990B2DA13EA14AA55BA5480F591F4017D6
:1024A000510709F464C0F11018C002171307C1F4F2
:1024B0008FA1080F111D87FD1A95E7CF0597C9F267
:1024C00085E090E09E878D8756C0CE010E942D0644
:1024D00083E090E09E878D87CCCF0217130741F7EA
:1024E0004D8D4195B801888199810E944308E0CFC4
:1024F0008430910500F5019700F1CE010E94910F03
:1025000008A519A54AA55BA58FA1082E000C990B5B
:102510002DA13EA1BA01680F791F6017710701F163
:10252000F11013C00217130799F48FA1080F111DA2
:1025300087FD1A95E7CF059721F5CE010E942D065C
:1025400083E090E09E878D87D8CF0217130769F745
:102550004D8D4195B801888199810E944308E5CF4E
:102560002417350724F446E050E05E874D87820F3C
:10257000931F9EA38DA3DF91CF911F910F91FF9089
:10258000089586E090E09ECFEF92FF920F931F9305
:10259000CF93DF93EC01162F8D859E85442309F49C
:1025A00088C08330910528F00397B1F185E090E071
:1025B0002AC069897A898B899C899B01281B390BE0
:1025C000C90137FD01969595879501969EA38DA328
:1025D0001123B9F04D8D11E041274195681B790B0E
:1025E000888199810E9443084D8D412741956B89CF
:1025F0007C898DA19EA1680F791F888199810E9495
:10260000430883E090E09E878D87DF91CF911F91F3
:102610000F91FF90EF9008958DA19EA197FDC6CFD9
:10262000CE010E94910FF12CE12C6DA17EA1E61646
:10263000F706C4F44D8D41956B897C896E0D7F1D25
:10264000888199810E9443084D8D419569897A89D5
:102650006E197F09888199810E9443083FEFE31A30
:10266000F30AE3CF615071097EA36DA3112369F2D0
:1026700077FDCBCF4D8D11E0412741958B899C890A
:10268000680F791F888199810E9443084D8D4127E9
:10269000419569897A898DA19EA1681B790B8881F2
:1026A0009981DF91CF911F910F91FF90EF900C9442
:1026B00043088330910531F108F077C0019708F4A1
:1026C00077C0CE010E94000DCE010E94910F1EA284
:1026D0001DA2112399F04D8D01E040274195698994
:1026E0007A89888199810E9443084D8D40274195C0
:1026F0006B897C89888199810E94430883E090E0FE
:102700009E878D872DA13EA169897A898B899C89B5
:10271000AB01481B590BCA0157FD0196959587954A
:10272000821793070CF444C04D8D4195621B730BC7
:10273000888199810E9443084D8D41956B897C89E0
:102740008DA19EA1680F791F888199810E944308FD
:102750002DA13EA12F5F3F4F3EA32DA3112309F4CE
:1027600054CF69897A898B899C89AB01481B590BA5
:10277000CA0157FD019695958795821793070CF42A
:1027800044CF4D8D11E041274195621B730B888129
:1027900099810E9443084D8D412741956B897C8921
:1027A0008DA19EA1680F791F7ACF059709F489CF73
:1027B00086E090E028CFCF92DF92EF92FF920F93C6
:1027C0001F93CF93DF93EC01162F8D859E854423B5
:1027D00009F458C084309105B0F5019708F43AC067
:1027E000CE010E94910F2DA13EA190E080E0111139
:1027F00002C08FEF90E02817390739F1E8A4F9A457
:102800002FA18AA59BA5820F911D27FD9A958E1554
:102810009F0581F10D8DC880D980B701C6010E9446
:10282000F405011180954DA1111140954823011126
:102830004095B701C6010E9443088FA1E80EF11C24
:1028400087FDFA94DDCF059759F285E090E09E87E9
:102850008D8771C0CE010E942D068FEF90E011117F
:1028600002C081E090E09EA38DA383E090E09E876C
:102870008D87B6CF8DA19EA1112309F457C09595E0
:10288000879557C08430910550F5019750F1CE01DE
:102890000E94910FE8A4F9A42FA18AA59BA5820FFD
:1028A000911D27FD9A958E159F0559F10D8DC880B4
:1028B000D980B701C6010E94F405011180954DA190
:1028C00011114095482301114095B701C6010E949E
:1028D00043088FA1E80EF11C87FDFA94DDCF059720
:1028E000C1F4CE010E942D0681E090E0111102C0DA
:1028F0008FEF90E09EA38DA383E090E09E878D876D
:10290000C6CF8DA19EA1111107C0009709F0B7CFC6
:1029100006C086E090E09BCF8F3F910539F426E01A
:1029200030E03E872D87112309F4A9CF880F991F26
:1029300081609EA38DA3DF91CF911F910F91FF9096
:10294000EF90DF90CF900895AF92BF92CF92DF9239
:10295000EF92FF920F931F93CF93DF93EC01F62E2C
:10296000E42E8D859E85222309F4D9C084309105FB
:1029700088F50197B0F1CE010E94000DCE010E94B2
:10298000910F0DA11EA1EE2009F464C0EE24E39482
:10299000F11002C070E8E72ECDA0DEA08CA190E07F
:1029A000019663E0880F991F6A95E1F708171907E8
:1029B000BCF5A880B980B801C5010E94F4059C2D22
:1029C000191624F5FF2001F1880F2D8D21118E2974
:1029D0009150F6CF059779F285E090E09E878D873C
:1029E00093C087E090E09EA38DA310E000E02BE071
:1029F00030E04CA16BA1888199810E941B0D83E07E
:102A000090E09E878D87B7CF8695DFCFB8016C1990
:102A10007D09482FC5010E9443080F5F1F4FBCCF9F
:102A200010E000E08DA19EA1081719070CF061C00D
:102A30004D8D41956CA128E0629FB0011124695F22
:102A40007F4F601B710B888199810E9443080F5F43
:102A50001F4FE8CF8CA138E0839FC00111249C0157
:102A6000201B310B8901085F1F4FEE24E394F11006
:102A700002C050E8E52ECDA0DEA08BA138E0839FF8
:102A8000C001112408171907ECF0A880B980B8011B
:102A9000C5010E94F4059C2D191654F4FF2031F055
:102AA000880F2D8D21118E299150F6CF8695F9CF63
:102AB000B8016C0D7D1D482FC5010E9443080150CF
:102AC0001109D9CF10E000E08DA19EA108171907C8
:102AD00084F44D8D41956BA188E0689FB00111246D
:102AE000600F711F888199810E9443080F5F1F4FFB
:102AF000EBCF8DA19EA1009721F425E030E03E8729
:102B00002D8701979EA38DA3DF91CF911F910F91E8
:102B1000FF90EF90DF90CF90BF90AF9008958430FA
:102B2000910580F5019788F1EE20C1F10CA128E014
:102B3000029F800111240A5F1F4F40E8B42EF1105C
:102B400002C0BB24B394C880D9808BA138E0839F96
:102B5000C0011124081719070CF450C0B801C601B0
:102B60000E94F405482FFF20B9F046958D8D811104
:102B70004B29B8016F5F7F4FC6010E944308015087
:102B80001109E1CF059709F059C01EA21DA283E0EB
:102B900090E09E878D87C8CF440FE8CF0BA188E0D7
:102BA000089F800111240F5F1F4F30E8B32EF110F2
:102BB00002C0BB24B394C880D9808CA190E0019658
:102BC00023E0880F991F2A95E1F708171907B4F435
:102BD000B801C6010E94F405482FFF2069F0469510
:102BE0008D8D81114B29B80161507109C6010E9478
:102BF00043080F5F1F4FDFCF440FF2CF88819981C9
:102C00004D8D4195EE2091F06BA128E0629FB001BF
:102C100011240E9443088DA19EA18730910521F4C3
:102C200026E030E03E872D8701966CCF6CA138E01E
:102C3000639FB0011124695F7F4FEBCF86E090E086
:102C4000CDCECF92DF92FF920F931F93CF93DF935E
:102C5000EC01F62E8D859E85442309F484C08330D3
:102C6000910570F0039751F185E090E09E878D8784
:102C7000DF91CF911F910F91FF90DF90CF9008953A
:102C80001EA21DA2CE010E94000DFF2099F04D8DC5
:102C900011E04127419569897A89888199810E944B
:102CA00043084D8D412741956B897C8988819981A5
:102CB0000E94430883E090E09E878D87CE010E94AA
:102CC000000DCE010E94910F0B891C8989899A8978
:102CD000801B910B97FD01966C01D594C7948DA133
:102CE0009EA1080F191FC816D9060CF4BDCF0F5F9F
:102CF0001F4F69897A898DA19EA19B01281B390BE1
:102D00000217130744F44D8D4195B80188819981CC
:102D10000E944308ECCF01969EA38DA3FF2009F4E7
:102D2000A7CFC816D9060CF4A3CF4D8D11E04127CB
:102D30004195681B790B888199810E9443084D8DCC
:102D4000412741956B897C898DA19EA1680F791FD0
:102D500088819981DF91CF911F910F91FF90DF9032
:102D6000CF900C94430883309105D1F1A0F50197E1
:102D7000A0F189899A892B893C89821B930B97FD45
:102D80000196959587959EA38DA3CE010E94000D77
:102D9000CE010E94910FFF20D9F04D8D11E0412707
:102DA000419569897A898DA19EA1681B790B8881DB
:102DB00099810E9443084D8D412741956B897C89FB
:102DC0008DA19EA1680F791F888199810E94430877
:102DD00083E090E04BCF059761F286E090E046CF2C
:102DE0008DA19EA197FDF9CF4D8D419569897A8975
:102DF000681B790B888199810E9443084D8D41950C
:102E00006B897C898DA19EA1680F791F888199812A
:102E10000E9443088DA19EA101979EA38DA3FF2030
:102E200009F426CF97FD24CF4D8D11E04127419520
:102E300069897A897ECF8F929F92AF92BF92CF920B
:102E4000DF92EF92FF920F931F93CF93DF93EC01EA
:102E5000F62E8D859E85442309F4E0C08E01095C21
:102E60001F4F35E0C32ED12C82309105E9F050F090
:102E70008330910509F441C0049709F4A8C085E0A6
:102E800090E00FC0BE01695C7F4FCE010E941E0F13
:102E9000811103C086E090E004C019AE18AE83E053
:102EA00090E09E878D870DC01FAA88A98823B1F066
:102EB000DE86CD868D859E852FA9211116C00597AA
:102EC00099F7DF91CF911F910F91FF90EF90DF90D5
:102ED000CF90BF90AF909F908F900895B801CE0192
:102EE0000E94DA0E8111E6CFE3CF059751F319AEB8
:102EF00018AE83E090E09E878D878FA9882329F103
:102F000021E02F2530E04CA16BA1888199810E949E
:102F10009A0B888199816D8D2CA93DA948AD59AD39
:102F2000662301F1BA016F5F7F4F79AF68AF240F5D
:102F3000351FF90140814095FF20F1F06BA1F8E0C9
:102F40006F9FB00111240E9443082FA988AD99AD4D
:102F50002817190609F0B5CF88A9811115C082E09C
:102F600090E09FCFBA016F5F7F4F79AF68AF240FBA
:102F7000351FF9014081E0CF6CA128E0629FB001CC
:102F80001124695F7F4FDFCF29893A89FF20B1F093
:102F90008F859889A901481B590BCA0101962BA15D
:102FA00058E0259F80199109112499AF88AF181610
:102FB00019060CF064CF84E090E073CF8CA1E8E0B8
:102FC0008E9FC00111240796821B930BEECF21E048
:102FD000262730E04CA16BA1888199810E949A0B31
:102FE000888199814D8D4195FF2081F06BA1F8E09A
:102FF0006F9FB00111240E94430888AD99AD0197DD
:1030000099AF88AF892B09F05CCF39CF6CA128E04C
:10301000629FB0011124695F7F4FEDCF843091052D
:1030200039F0059709F036CF84E090E09E878D87D0
:1030300021E02F2530E04CA16BA1888199810E946D
:103040009A0B888199814D8D4195FF2009F445C0E7
:103050006BA138E0639FB00111240E9443080CA1CA
:1030600010E0ABA0B12C6801CA18DB088FEFC81ABA
:10307000D80A23E0CC0CDD1C2A95E1F78E8D9F8DBC
:10308000009721F08C159D0508F46C010F5F1F4F10
:1030900083E0000F111F8A95E1F793E0AA0CBB1C97
:1030A0009A95E1F7FF2021F145017401EA18FB0828
:1030B00080169106DCF5B401888199810E94F4059F
:1030C00090E02D8D222389F02FEF30E082179307B7
:1030D00069F5EFEF8E1A9E0AE8CF6CA158E0659F64
:1030E000B0011124695F7F4FB8CF30E020E0EECF10
:1030F00001501109F12CE12C0A151B05BCF0B80197
:10310000888199810E94F40590E02D8D222359F049
:103110002FEF30E08217930749F401501109FFEFB8
:10312000EF1AFF0AE9CF30E020E0F4CFEC14FD0401
:1031300008F0B0CEC6CE2F923F924F925F926F9220
:103140007F928F929F92AF92BF92CF92DF92EF9237
:10315000FF920F931F93CF93DF93CDB7DEB72B97DB
:103160000FB6F894DEBF0FBECDBF9B838A83049653
:103170009D838C8350E040E06AE070E00E94AB0DDC
:10318000212C198206E010E0E5E04E2E512CF3E0F0
:103190006F2E712CAA81BB8198968C9198972816D6
:1031A00010F00C9484219596ED91FC9124E4229EDC
:1031B000E00DF11D1124FB87EA8712A225853685D3
:1031C00081E02630310509F4C8C1848D882319F1C6
:1031D00087819085B0E0A0E02530310511F12FB74F
:1031E000F894409188015091890160918A01709111
:1031F0008B012FBFEA85FB85C380D480E580F680F4
:103200004C195D096E097F09481759076A077B0742
:1032100040F580E0A2C1AA85BB8519968D919C914D
:10322000D9CF2FB7F89440918801509189016091CE
:103230008A0170918B012FBFEA85FB85C380D48002
:10324000E580F6804C195D096E097F09C384D4843A
:10325000F12CE12C4C155D056E057F0508F0BFCF04
:10326000D8CFAA85BB8512969C909110D2CF2FB74C
:10327000F8948091880190918901A0918A01B09180
:103280008B012FBFEA85FB8583839483A583B68357
:1032900081E082A3A4A4B5A4A114B10409F453C18C
:1032A00085859685009709F433C0069709F44BC1CC
:1032B000AA85BB855C963C905C97332009F4F8C0E6
:1032C0005896ED91FC913197EC31F10508F095C3DA
:1032D000E459F64E0C94F328821A8B1AB21AB51AD6
:1032E000BC1A8E1FBF1A351C001D431E8D1DCD1E1E
:1032F0000B2112211C21152125211E2127212E21E0
:10330000312138213B21432146214A214D2154219D
:10331000AA85BB859F96BC92AE929E979496EC90A0
:10332000B8E0EB9E70011124F70137967F01AA8562
:10333000BB8593968C91B8E08B9FE018F10811241F
:10334000EFEFEE1AFE0AD12CC12CD5016D915D0173
:103350006623C1F0EA85FB8524A935A970E043A95D
:10336000CF010E94210E90E0C80ED91E892B69F36F
:10337000D5018C91882349F3EA85FB8586A9C80E7F
:10338000D11CE3CFAA85BB855096DC92CE921F97C5
:1033900056968D919C918130910509F455C028F085
:1033A000029771F1992493941DC0EA85FB8584A14D
:1033B00090E0019673E0880F991F7A95E1F79C01E0
:1033C00021503109328B218BEC14FD0490F483A140
:1033D000F8E08F9FC0011124AA85BB8554969C9369
:1033E0008E93539781E09826EA85FB85958A848F92
:1033F0005FCF8C199D09EA85FB85948B838BD2CF97
:10340000AA85BB8593968C91B8E08B9FC00111244F
:10341000EA85FB85948B838BEC14FD0468F484A10E
:10342000F8E08F9FC00111240796AA85BB855296AC
:103430009C938E935197D6CF0197C80ED91EEA85DB
:10344000FB85D28AC18AAECFAA85BB8593962C9183
:10345000B8E02B9F90011124EC14FD0498F4EA8548
:10346000FB8584A1F8E08F9FC00111240796AA85EF
:10347000BB8552969C938E93519754963C932E9372
:103480005397B0CFEC18FD08F694E794E20EF31EC4
:10349000EA85FB85F48AE38AF1E0CF1AD108CE0CE5
:1034A000DF1CAA85BB855296DC92CE9251977ACFCB
:1034B000AA85BB855A96ED91FC913197EC31F105C7
:1034C00008F09BC2EA59F54E0C94F328721D8B1A32
:1034D000B21AB51ABC1A8E1FBF1A351C001D431E26
:1034E0008D1DCD1E0B2112211C21152125211E21F0
:1034F00027212E21312138213B21432146214A21F8
:103500004D2154218A859B850E94910FEA85FB8578
:103510005686458606C0432D61E08A859B850E94BC
:10352000A610AA85BB855C968C915C971D962D9103
:103530003C91882329F081E02530310509F480E0B1
:10354000EA85FB85848F81E0AA85BB851D962D9138
:103550003C912630310509F05CCEB981B82BB98396
:10356000239418CE432D60E0D8CF432D61E08A85A7
:103570009B850E941B17D5CF432D60E0F8CFEA85CD
:10358000FB8585859685332009F4EAC07F01F7E342
:10359000EF0EF11C82309105A1F130F0039709F490
:1035A0005BC0AA85BB8566C26A857B85695C7F4FE7
:1035B0008A859B850E941E0F811103C0AA85BB8549
:1035C0009AC68A859B850E94000DEA85FB8511AE0F
:1035D00010AE83A1F8E08F9FC0011124AA85BB859E
:1035E00096969C938E93959751968D919C91529718
:1035F0009B969C938E939A971E967C926E921D97A3
:1036000090CFEA85FB8517AA80A9882381F0AA8537
:10361000BB851E965C924E921D97EA85FB8585853B
:10362000968527A921110BC0059759F77ACFB701C5
:103630008A859B850E94DA0E8111EFCFE8CF05972E
:1036400009F46FCFAA85BB85D9961C921E92D89794
:103650001E967C926E921D97EA85FB8565A176A1E8
:1036600082A593A504A8F5A9E02DAA85BB85D896C7
:103670002D913C91D997E20FF31F4081681779078C
:1036800051F48D919C9111975D962C91211140954B
:103690000E9443083BCF411135C0AA85BB85969651
:1036A0009C938E939597EA85FB8585A196A122A58B
:1036B00033A582179307C1F420AD31AD43A1F8E0E3
:1036C0004F9FA0011124AA85BB8596965C934E93CB
:1036D00095972F5F3F4FD9963C932E93D89701979C
:1036E0009B969C938E939A97EA85FB8527A980AD3C
:1036F00091AD2817190609F014CF82E090E0968763
:1037000085870FCFEA85FB85458D41958081918125
:103710000E944308AA85BB8595966D917C919697EA
:103720006F5F7F4F96967C936E9395978D919C914A
:1037300011975D96EC915D97D4962D913C91D5971C
:10374000D8964D915C91240F351FEE2331F0F9018D
:10375000408140950E944308A6CFD9014C91FACFF1
:103760008130910508F42ACF8430910568F00597DF
:1037700009F024CFEA85FB858189928993A782A7E6
:1037800096A385A376866586AA85BB85CD90DC90B9
:1037900011975D968C9188248A94912C811102C096
:1037A000912C812CEA85FB85A388B488AA85BB85EA
:1037B0009596ED90FC90B701C6010E94F405EA854C
:1037C000FB8522A533A58815190451F42A153B055C
:1037D0003CF0C901019793A782A736A325A3E6CFA2
:1037E0002F5F3F4F2A153B050CF4E8CEEA85FB8599
:1037F00024A1F8E02F9F90011124295F3F4FE2168A
:10380000F3063CF4B7016F5F7F4F482FC6010E945B
:103810004308AA85BB855D964C915D974195959629
:103820006D917C9196978D919C910E944308EA85B9
:10383000FB8525A136A12F5F3F4F36A325A384A189
:1038400090E0019643E0880F991F4A95E1F7281709
:10385000390709F066CE82A593A59C012150310954
:1038600033A722A796A385A35CCEEA85FB85858531
:103870009685332009F467C08430910508F042C072
:10388000019708F443C08A859B850E94000D8A85B4
:103890009B850E94910FEA85FB8593A0990C990C5A
:1038A000990C88248394AA85BB859596ED90FC900D
:1038B000969794968C91949790E0019623E0880FC8
:1038C000991F2A95E1F7C92CD12CC816D90674F591
:1038D000AD90BC90B601C5010E94F405482F50E0A0
:1038E00087E090E08E199F093320D9F002C05595EA
:1038F00047958A95E2F7B601C5010E94430838242E
:103900009394D1CF059709F4BECF00CEAA85BB858D
:1039100096961C921E9295971E967C926E921D977B
:10392000B2CF01C0440F8A95EAF7E5CFBFEFEB1A9B
:10393000FB0AEA85FB85F6A2E5A2F8E0EF16F104A2
:1039400009F0EFCD2ECE8430910598F50197A0F1C6
:10395000AA85BB8593969C90990C990C990C882408
:10396000839433243394EA85FB85E5A0F6A084A1F3
:1039700090E00196B3E0880F991FBA95E1F7C92C42
:10398000D12CC816D9065CF5A080B180B601C5015E
:103990000E94F405482F50E08820D9F001C0440F60
:1039A000EA94EAF7B601C5010E9443088324939480
:1039B000DACF059709F002CEE1E0F0E0AA85BB85F9
:1039C0009696FC93EE9395971E967C926E921D9719
:1039D000BFCF02C055954795EA94E2F7E3CFFFEFDA
:1039E000EF1AFF0AAA85BB859696FC92EE929597F0
:1039F000B8E0EB16F10409F094CDEA85FB8508C424
:103A0000EA85FB8585859685332009F45AC0843084
:103A1000910500F58230910500F5009781F101973D
:103A200009F0BFCDAA85BB8595966D917C9196973F
:103A3000CB01019696969C938E939597CD010E940B
:103A4000B80D8A859B850E94910FEA85FB85768655
:103A5000658667CD059709F0A4CDAA85BB859596A7
:103A60006D917C9196979A968D919C919B978617D4
:103A70009707ECF41E965C924E921D9752CDAA8544
:103A8000BB8596961C921E92959791968C919197D4
:103A900090E09B969C938E939A97CD010E94000D87
:103AA00021E030E0EA85FB85368725873ACDCB01DA
:103AB0000196EA85FB8596A385A3CF010E94B80DE8
:103AC00030CD8430910598F40197A0F0EA85FB850C
:103AD00065A176A1CB01019777FFEBCF62A5CF015E
:103AE0000E94B80D8A859B850E94000D67CD0597C1
:103AF00009F064CDEA85FB8561A1862F90E093A74C
:103B000082A796A385A3CF010E94B80D8A859B85C5
:103B10000E94910FAA85BB856FCDEA85FB858585BF
:103B200096858230910509F45DC048F4009769F0EC
:103B30000197B9F031102EC186E090E0E6C08330E5
:103B4000910509F492C00597A9F7AA85BB859696B9
:103B50001C921E929597E1E0F0E01E96FC93EE9386
:103B60001D97AA85BB8595968D919C9196970196F8
:103B700096969C938E9395979396EC90B8E0EB9ED7
:103B800070011124DD24D394EA85FB8525A136A19B
:103B900084A190E00196A3E0880F991FAA95E1F710
:103BA000E816F90694F4C7018370992782179307E2
:103BB00044F4458D4D254195B701808191810E9446
:103BC0004308FFEFEF1AFF0ADFCF82E090E02430D6
:103BD000310509F0A6CCAA85BB851E969C938E93D1
:103BE0001D979FCC8A859B850E94000D332021F074
:103BF0008A859B850E94910FEA85FB8585A196A108
:103C0000019796A385A3E3A0F8E0EF9E700111242D
:103C1000DD24D394AA85BB8595962D913C919697EA
:103C200094968C91949790E00196F3E0880F991FF9
:103C3000FA95E1F7E816F906A4F4C701837099270D
:103C40008217930754F45D964C915D974D254195ED
:103C5000B7018D919C910E944308BFEFEB1AFB0ABC
:103C6000D9CF232B09F05DCCF0CE8A859B850E94AD
:103C7000000D332009F412C18A859B850E94910FA3
:103C800085E090E0A8CFAA85BB851D968D919C917B
:103C90008230910509F43CC038F08330910509F475
:103CA0006EC0059709F0F8C0EA85FB85E3A0F8E04F
:103CB000EF9E70011124AA85BB8594968C919497F0
:103CC00090E00196E3E0880F991FEA95E1F7E81686
:103CD000F906CCF45D96BC905D97CD90DC90B70171
:103CE000C6010E94F405B110809545E5E0FE4AEA60
:103CF000482BB1104095B701C6010E944308BFEFA1
:103D0000EB1AFB0AD8CF82E090E0EA85FB85F7CC7E
:103D10008A859B850E94000D332021F08A859B8532
:103D20000E94910FAA85BB859396EC90B8E0EB9E1C
:103D300070011124EA85FB8584A190E0019673E06F
:103D4000880F991F7A95E1F7E816F9060CF0E2CE94
:103D5000B58CC080D180B701C6010E94F405B110B6
:103D600080954AEAE0FE45E5482BB1104095B70141
:103D7000C6010E944308FFEFEF1AFF0ADBCF8A85D6
:103D80009B850E94000D332009F4D6CE8A859B8541
:103D90000E94910F85E090E0B8CFEA85FB8585858C
:103DA00096858430910508F07CC0019708F47CC0AA
:103DB000EA85FB8516A215A20E9428264B015C010C
:103DC0000E9428266E837F8388879987AA85BB8572
:103DD0009596CD90DC90BFEFCB1ADB0AEA85FB8588
:103DE000D6A2C5A2C501B4012BE030E040E050E00E
:103DF0000E94802670E09B01225B3E4F7901D90131
:103E0000BC906E817F818885998528E030E040E014
:103E100050E00E9480268B2D90E0062E02C09595E2
:103E200087950A94E2F780FF05C0B8E8CB16B3E1A6
:103E3000DB0614F281E090E001C0880F6A95EAF792
:103E4000B82AF701B0828A859B850E94910FAA85C6
:103E5000BB8596961C921E9295979396BC90BB0C30
:103E6000BB0CBB0CEA85FB8584A190E0019663E066
:103E7000880F991F6A95E1F7EB2CF12CE816F906EB
:103E800014F1EEE4F1E081918F3F09F04ACB26E591
:103E900031E02E173F07B9F73110F2CE86E090E0FF
:103EA0009ACE059709F046CEEEE4F1E0119229E5AD
:103EB00031E02E173F07D1F7AA85BB851E967C926D
:103EC0006E921D9775CFAA85BB85CD90DC90B7010A
:103ED000C6010E94F405AA85BB859596ED91FC91DB
:103EE000E25BFE4F4081311001C040954823B7018D
:103EF000C6010E944308EA85FB8585A196A101962B
:103F00008B30910521F096A385A3B394ABCFAA85FE
:103F1000BB8596961C921E929597F7CFAA85BB8576
:103F20001D968D919C913110C6C18430910508F089
:103F3000BEC1019778F58A859B850E942D06EA858A
:103F4000FB8580A591A522A533A58217930724F4AC
:103F500031A720A793A782A7AA85BB85DE968D915E
:103F60009C91DF97892B09F4C6C1EA85FB8583A163
:103F7000F8E08F9FC00111240197AA85BB85969612
:103F80009C938E93959797961C9297971E967C92EA
:103F90006E921D978A859B850E94910FEA85FB850D
:103FA00085A196A1019696A385A3F12C6F01F1E45A
:103FB000CF0ED11CD6012C91EA85FB8565A176A197
:103FC000822F90E0F21608F0E1C04F2D50E0641B04
:103FD000750B84A190E0019633E0880F991F3A9504
:103FE000E1F7681779072CF583A1F8E08F9FC001EE
:103FF000112468177907ECF0AA85BB858D919C91F7
:10400000119797963C919797320390011124420F94
:10401000531FDE96ED91FC91DF97E40FF51F5D963F
:104020002C91222309F4B0C0E4914E2F40950E94B8
:104030004308F394BFCFEA85FB8517A284A190E0E3
:10404000019653E0880F991F5A95E1F796A385A32F
:10405000768665868A859B850E94910FAA85BB8599
:1040600095968D919C919697019796969C938E9399
:104070009597F12C6D01B0E4CB0ED11CF601208197
:10408000AA85BB8595966D917C919697F21608F05E
:104090003AC0EF2DF0E06E0F7F1F94968C919497AD
:1040A00090E0019643E0880F991F4A95E1F7681761
:1040B00079072CF593968C91B8E08B9FC001112461
:1040C00068177907E4F0AA85BB858D919C911197BB
:1040D00097964C9197974203A00111244E0F5F1FB2
:1040E000DC96ED91FC91DD97E40FF51F5D962C9128
:1040F000222339F0E4914E2F40950E944308F39417
:10410000BDCF4491FACF7B01B1E0EB1AF108EA850B
:10411000FB8582A593A5E816F9065CF0458D4195CF
:10412000B701808191810E944308F1E0EF1AF10804
:10413000EECFAA85BB8597968C9197978F5F9796C0
:104140008C939797082E000C990BFD01EE5BFF4FA7
:1041500020812817190609F014F497961C92EA8515
:10416000FB8583A1F8E08F9FC0011124D6012C911B
:10417000821B91090197EA85FB8525A136A12817A5
:10418000390709F0CEC9C4C9449151CF7B01E81A5F
:10419000F90AEA85FB8582A593A5E816F9065CF085
:1041A000458D4195B701808191810E944308F1E0DE
:1041B000EF1AF108EECFAA85BB8597968C91979759
:1041C0008F5F97968C939797082E000C990BFD01A3
:1041D000ED5BFF4F20812817190609F014F497961C
:1041E0001C92EA85FB8584A1F8E08F9F9001112441
:1041F000295F3F4FD6018C91820F932F911D01961D
:10420000EA85FB8525A136A12817390709F089C958
:104210001687058786C9432D60E08A859B850E94A5
:10422000E60F7FC9432D61E0F8CF41E0632D8A8519
:104230009B850E94281275C940E0F8CF41E0632DAC
:104240008A859B850E946F116CC940E0F8CF432D91
:1042500060E08A859B850E94C41263C9432D61E09A
:10426000F8CF432D60E08A859B850E94211659C9AD
:10427000432D61E0F8CF232D41E061E08A859B85E5
:104280000E94A4144EC9232D40E0F7CF232D41E016
:1042900060E0F4CF232D40E0FBCF432D61E08A8521
:1042A0009B850E94DB133DC9432D60E0F8CF059745
:1042B00009F441CE83C98430910510F5019708F0C7
:1042C000C9CE8A859B850E942D06EA85FB8580A53F
:1042D00091A522A533A58217930724F431A720A71F
:1042E00093A782A7AA85BB85DC968D919C91DD97CB
:1042F000892B09F0A0CE1E961C930E931D9711C911
:10430000059709F4A7CE4DC941E050E06AE070E09E
:104310008C819D810E94AB0D89812B960FB6F894FC
:10432000DEBF0FBECDBFDF91CF911F910F91FF90E8
:10433000EF90DF90CF90BF90AF909F908F907F9045
:104340006F905F904F903F902F900895CF92DF92A3
:10435000EF92FF920F931F93CF93DF93EC016B01CA
:1043600088A541E050E0882321F0EDA1FEA1468917
:104370005789F12CE12C01E010E030E020E0B6019B
:10438000CE010E943A03CE010E949B188111FBCFFF
:10439000F60101900020E9F7CF0101978C199D09E2
:1043A000DF91CF911F910F91FF90EF90DF90CF9011
:1043B0000895CF92DF92EF92FF920F931F93CF93C6
:1043C000DF93CDB7DEB728970FB6F894DEBF0FBEE8
:1043D000CDBF10E004E480918401181760F480914F
:1043E000810190918201109F800D911D11240E94E6
:1043F000000D1F5FF0CF80914C018F5F873009F473
:1044000074C080934C016091000170910101660FAE
:10441000771F7093010160930001072E000C880B39
:10442000990B0E94FA279B01AC0160E070E080E8E4
:104430009FE30E94502720E030E04AE754E40E94C6
:10444000862820E030E040E05FE30E94E4260E94FE
:10445000C2277093860160938501E0914C01F0E0E2
:10446000EE0FFF1FE45FFE4F81818F9380818F935A
:1044700088E291E09F938F93CE0101966C019F9308
:104480008F930E942E2A24E0E22EF12C04E010E00B
:104490002AEF30E041E050E0B6018CE591E00E9467
:1044A0003A030F900F900F900F900F900F908CE5A4
:1044B00091E00E949B188823D1F364EF71E080E0C3
:1044C00090E00E94860410E004E4809184011817B3
:1044D000B0F48091810190918201109F800D911D17
:1044E00011240E94000D1F5FF0CF81E080934C01EA
:1044F00080E190E0909301018093000184CF82E0FD
:104500000E94D903892BD9F36AEF70E080E090E034
:104510000E94860428960FB6F894DEBF0FBECDBF6A
:10452000DF91CF911F910F91FF90EF90DF90CF908F
:1045300008951F920F920FB60F9211242F933F935D
:104540008F939F93AF93BF9380918801909189013E
:10455000A0918A01B0918B013091870123E0230F54
:104560002D3758F50196A11DB11D20938701809329
:10457000880190938901A0938A01B0938B01809167
:104580008C0190918D01A0918E01B0918F010196C7
:10459000A11DB11D80938C0190938D01A0938E017C
:1045A000B0938F01BF91AF919F918F913F912F91C8
:1045B0000F900FBE0F901F90189526E8230F0296BC
:1045C000A11DB11DD2CF789484B5826084BD84B51D
:1045D000816084BD85B5826085BD85B5816085BDFE
:1045E00080916E00816080936E00109281008091B6
:1045F000810082608093810080918100816080933E
:104600008100809180008160809380008091B10062
:1046100084608093B1008091B00081608093B0008D
:1046200080917A00846080937A0080917A00826021
:1046300080937A0080917A00816080937A008091E3
:104640007A00806880937A001092C10062E082E074
:104650000E94300480916801882309F412C1CFB709
:10466000F89480915B01811127C0EAEBF5E0849119
:10467000EEECF5E09491E82FF0E0EE0FFF1FEE5620
:10468000FA4FA591B491EC91E92321F461E08AE01D
:104690000E94020461E08AE00E9430048CB58061CF
:1046A0008CBD8CB580648CBD61E08DE00E943004CF
:1046B00061E08BE00E94300480915B018F5F80930A
:1046C0005B01CFBF61E0809167010E94300461E02F
:1046D000809167010E940204109271011092700192
:1046E000109273011092720180917601909177017E
:1046F0008856904051F088E690E09093770180933F
:10470000760180E691E00E94B904C0916B01E9E076
:10471000CE9FC00111240E94F9288C0190936D0155
:1047200080936C018C2F90E0880F991F0E94F928CC
:1047300090936F0180936E01892B09F4ADC0012B1A
:1047400009F4AAC050E040E063E070E080E691E048
:104750000E94AB0D47E050E061E070E080E691E040
:104760000E94AB0D47E050E062E070E080E691E02F
:104770000E94AB0D50E040E064E070E080E691E024
:104780000E94AB0D40916B01415060E080E691E0EA
:104790000E94720B50E040E070E060E080E691E043
:1047A0000E94AB0D50E040E06BE070E080E691E0ED
:1047B0000E94AB0D41E050E06AE070E080E691E0DD
:1047C0000E94AB0DC1E0D1E0D093840186E490E07B
:1047D0000E94F928FC01DC0181E090E08D939D931B
:1047E000138212821482158216821782108686E046
:1047F00090E0908B878711A210A212A287E083A37A
:1048000015A216A217A616A614AA13AA15AA17AAC5
:1048100016AAD0AF15AE14AE17AE16AEE05CFF4FC1
:1048200011821082B0938201A0938101CC2309F4FC
:10483000CFC0AB2B09F4CCC0D0E024E4F22E30E69C
:10484000C32E31E0D32E90918401D91738F5CC23B3
:1048500009F4BEC00091810110918201DF9D000D1D
:10486000111D1124F801D182C082C8010E94C90D16
:10487000DF5FC1E0F80184A995A9892B21F7C0E089
:10488000E2CF61E0809165010E94300461E0809197
:1048900066010E94300416CFC0E095CFCC2309F406
:1048A00097C0809183014FEF480F913041F4481732
:1048B00030F4E0918101F091820113A244A307E05A
:1048C00010E022E030E060E080E691E00E941B0D05
:1048D00090918401A0918101B0918201FD0180E05D
:1048E0002AE030E0981741F030872783328721870C
:1048F0008F5FEC5BFF4FF6CF9923C9F017968D9130
:104900009C9118974AE0489F9001499F300D1124CF
:1049100080E094E440918401841760F4FD01899F54
:10492000E00DF11D1124348723878F5FF3CF90E0D2
:1049300080E0E8CFC0E014E4D1E080918101909163
:10494000820120918401C21750F4C19F800D911DF6
:104950001124FC01D6AB0E94C90DCF5FEECF20E041
:1049600034E440918401241748F4FC01239FE00DB6
:10497000F11D1124178E168E2F5FF3CF20E044E433
:1049800030918401FC01231768F020E041E050E001
:10499000231781F0518F408F138E128E2F5FEC5BA7
:1049A000FF4FF6CF249FE00DF11D1124178A168AC0
:1049B0002F5FE6CF20E034E440918401241740F4D7
:1049C000FC01239FE00DF11D1124158E2F5FF4CF04
:1049D000C0E0D4E480918401C81768F4809181011B
:1049E0009091820162E0CD9F800D911D11240E9463
:1049F000B80DCF5FEFCF64EF71E080E090E00E94F0
:104A0000860494E0E92EF12C04E010E024E630E086
:104A100041E050E06BE271E08CE591E00E943A03E6
:104A20008CE591E00E949B188823D1F364EF71E03C
:104A300080E090E00E9486040E94D92100E010E00E
:104A4000D0E0C0E0FC2E209711F488E0F82E60E062
:104A500087E00E9402048F2D0E94650680E00E947C
:104A6000650661E087E00E94020460E087E00E9442
:104A700002048C2F8F5F0E9465068FEF0E946506EF
:104A800061E087E00E94020482E00E94D903892B42
:104A900011F40E94D9216091850170918601072E41
:104AA000000C880B990B0E9486042196C830D10512
:104AB00049F60115110521F20E940000C1CFECE575
:104AC000F1E0138212828EE191E09183808311865E
:104AD000128687E0838781E084872DE431E0368782
:104AE00025878787808F1582148216828783108698
:104AF00087A308950F931F93CF93DF938EE191E0E7
:104B000090935D0180935C01C0918101D0918201FD
:104B1000209759F1FE0132972081318144E4429F70
:104B2000C001439F900D1124C80FD91F80918101AE
:104B3000909182018C179D07A1F0C454D10989A9D5
:104B40009AA9009739F0FC01048115810E949529EA
:104B5000C801F7CF8CA99DA9009741F30E94952920
:104B6000E5CFCE0102970E949529809168018823A4
:104B700099F09FB7F89480915B01882319F08150D8
:104B800080935B0180915B01811105C08CB58F7BA7
:104B90008CBD10925A019FBF80916C0190916D0164
:104BA0000E94952980916E0190916F01DF91CF91C4
:104BB0001F910F910C9495298F929F92AF92BF9263
:104BC000CF92DF92EF92FF92CF93DF93EC01688157
:104BD00079818A819B81611571058105910521F497
:104BE00064E279ED8BE597E02DE133EF41E050E0B1
:104BF0000E94802649015A019B01AC01A7EAB1E459
:104C00000E949F266B017C01ACEEB4EFA5019401DC
:104C10000E94AD26C60ED71EE81EF91EF7FE06C07E
:104C200081E0C81AD108E10880E8F80AC882D98270
:104C3000EA82FB82C701B6019F77DF91CF91FF9097
:104C4000EF90DF90CF90BF90AF909F908F9008959E
:104C50008F929F92AF92BF92CF92DF92EF92FF928C
:104C6000609102017091030180910401909105010E
:104C7000611571058105910521F464E279ED8BE5FB
:104C800097E02DE133EF41E050E00E94802649019A
:104C90005A019B01AC01A7EAB1E40E949F266B0177
:104CA0007C01ACEEB4EFA50194010E94AD26C60EC6
:104CB000D71EE81EF91EF7FE06C081E0C81AD1080B
:104CC000E10880E8F80AC0920201D0920301E09264
:104CD0000401F0920501C701B6019F77FF90EF90A4
:104CE000DF90CF90BF90AF909F908F90089560938A
:104CF00002017093030180930401909305010895CC
:104D0000052E97FB1EF400940E94972657FD07D0AE
:104D10000E94B22607FC03D04EF40C9497265095BF
:104D20004095309521953F4F4F4F5F4F0895909597
:104D30008095709561957F4F8F4F9F4F08950E948A
:104D4000D426A59F900DB49F900DA49F800D911D1A
:104D500011240895B7FF0C949F260E949F26821B62
:104D6000930B0895A1E21A2EAA1BBB1BFD010DC0D7
:104D7000AA1FBB1FEE1FFF1FA217B307E407F5070B
:104D800020F0A21BB30BE40BF50B661F771F881FE7
:104D9000991F1A9469F760957095809590959B017D
:104DA000AC01BD01CF010895A29FB001B39FC00126
:104DB000A39F700D811D1124911DB29F700D811D47
:104DC0001124911D08955058BB27AA270E94FB2645
:104DD0000C944C280E943E2838F00E94452820F070
:104DE00039F49F3F19F426F40C943B280EF4E09517
:104DF000E7FB0C943528E92F0E945D2858F3BA1779
:104E0000620773078407950720F079F4A6F50C94E0
:104E10007F280EF4E0950B2EBA2FA02D0B01B901BF
:104E200090010C01CA01A0011124FF27591B99F020
:104E3000593F50F4503E68F11A16F040A22F232F2C
:104E4000342F4427585FF3CF469537952795A7957C
:104E5000F0405395C9F77EF41F16BA0B620B730B23
:104E6000840BBAF09150A1F0FF0FBB1F661F771F94
:104E7000881FC2F70EC0BA0F621F731F841F48F449
:104E8000879577956795B795F7959E3F08F0B0CFD2
:104E90009395880F08F09927EE0F979587950895B9
:104EA0000E9464270C944C280E94452858F00E94C8
:104EB0003E2840F029F45F3F29F00C943528511129
:104EC0000C9480280C943B280E945D2868F3992359
:104ED000B1F3552391F3951B550BBB27AA276217F6
:104EE0007307840738F09F5F5F4F220F331F441F03
:104EF000AA1FA9F335D00E2E3AF0E0E832D0915037
:104F00005040E695001CCAF72BD0FE2F29D0660F23
:104F1000771F881FBB1F261737074807AB07B0E866
:104F200009F0BB0B802DBF01FF2793585F4F3AF06C
:104F30009E3F510578F00C9435280C9480285F3FF3
:104F4000E4F3983ED4F3869577956795B795F795F2
:104F50009F5FC9F7880F911D9695879597F90895DA
:104F6000E1E0660F771F881FBB1F62177307840776
:104F7000BA0720F0621B730B840BBA0BEE1F88F785
:104F8000E09508950E94C9276894B1110C94802877
:104F900008950E94652888F09F5798F0B92F9927A7
:104FA000B751B0F0E1F0660F771F881F991F1AF014
:104FB000BA95C9F714C0B13091F00E947F28B1E0D2
:104FC00008950C947F28672F782F8827B85F39F0D1
:104FD000B93FCCF3869577956795B395D9F73EF4AD
:104FE00090958095709561957F4F8F4F9F4F089555
:104FF000E89409C097FB3EF4909580957095619573
:105000007F4F8F4F9F4F9923A9F0F92F96E9BB2728
:105010009395F695879577956795B795F111F8CFA4
:10502000FAF4BB0F11F460FF1BC06F5F7F4F8F4F0F
:105030009F4F16C0882311F096E911C0772321F005
:105040009EE8872F762F05C0662371F096E8862F9D
:1050500070E060E02AF09A95660F771F881FDAF7F4
:10506000880F9695879597F9089597F99F6780E837
:1050700070E060E008959FEF80EC089500240A94AA
:105080001616170618060906089500240A94121623
:105090001306140605060895092E0394000C11F456
:1050A000882352F0BB0F40F4BF2B11F460FF04C003
:1050B0006F5F7F4F8F4F9F4F089557FD9058440F5C
:1050C000551F59F05F3F71F04795880F97FB991F67
:1050D00061F09F3F79F08795089512161306140624
:1050E000551FF2CF4695F1DF08C0161617061806B1
:1050F000991FF1CF86957105610508940895E8948C
:10510000BB2766277727CB0197F908950E94992836
:105110000C944C280E943E2838F00E94452820F02C
:10512000952311F00C9435280C943B2811240C94F1
:1051300080280E945D2870F3959FC1F3950F50E081
:10514000551F629FF001729FBB27F00DB11D639F39
:10515000AA27F00DB11DAA1F649F6627B00DA11DDF
:10516000661F829F2227B00DA11D621F739FB00D85
:10517000A11D621F839FA00D611D221F749F3327F5
:10518000A00D611D231F849F600D211D822F762F8E
:105190006A2F11249F5750409AF0F1F088234AF06B
:1051A000EE0FFF1FBB1F661F771F881F91505040D7
:1051B000A9F79E3F510580F00C9435280C94802867
:1051C0005F3FE4F3983ED4F3869577956795B7955E
:1051D000F795E7959F5FC1F7FE2B880F911D969578
:1051E000879597F90895EE0FFF1F0590F491E02D34
:1051F00009940F931F93CF93DF938230910510F49E
:1052000082E090E0E0919201F091930130E020E0A3
:10521000B0E0A0E0309799F42115310509F44AC0B7
:10522000281B390B24303105D8F58A819B81611503
:10523000710589F1FB0193838283FE0111C04081D6
:1052400051810281138148175907E0F04817590727
:1052500099F4109761F012960C93129713961C9381
:105260003296CF01DF91CF911F910F910895009356
:10527000920110939301F4CF2115310551F042179B
:10528000530738F0A901DB019A01BD01DF01F801E4
:10529000C1CFEF01F9CF9093930180939201CDCFCD
:1052A000FE01E20FF31F819391932250310939835C
:1052B0002883D7CF2091900130919101232B41F485
:1052C00020910801309109013093910120939001C0
:1052D00020910601309107012115310541F42DB7C8
:1052E0003EB740910A0150910B01241B350BE09110
:1052F0009001F0919101E217F307A0F42E1B3F0BF0
:105300002817390778F0AC014E5F5F4F2417350737
:1053100048F04E0F5F1F509391014093900181938D
:1053200091939FCFF0E0E0E09CCFCF93DF93009785
:10533000E9F0FC01329713821282A0919201B091A0
:105340009301ED0130E020E01097A1F4208131813C
:10535000820F931F209190013091910128173907F6
:1053600009F061C0F0939101E0939001DF91CF913A
:105370000895EA01CE17DF07E8F54A815B819E01B7
:1053800041155105B1F7E901FB83EA834991599130
:10539000C40FD51FEC17FD0761F48081918102963F
:1053A000840F951FE90199838883828193819B8370
:1053B0008A83F0E0E0E012968D919C91139700971C
:1053C000B9F52D913C911197CD010296820F931F53
:1053D00020919001309191012817390739F63097C3
:1053E00051F51092930110929201B0939101A09304
:1053F0009001BCCFD383C28340815181840F951F1C
:10540000C817D90761F44E5F5F4F88819981480FB3
:10541000591F518340838A819B8193838283211505
:10542000310509F0B0CFF0939301E09392019ECF44
:10543000FD01DC01C0CF13821282D7CFFB01DC015A
:1054400002C001900D9241505040D8F70895DC0100
:1054500001C06D9341505040E0F70895AEE0B0E0D8
:10546000E4E3FAE20C94DD2C0D891E8986E08C833E
:105470001A8309838FEF9FE79E838D83AE01475E7A
:105480005F4F6F89788DCE0101960E94512A2F813E
:105490003885020F131FF80110822E96E4E00C9459
:1054A000F92CABE0B0E0E7E5FAE20C94CF2C7C01FC
:1054B0003B018A01FC0117821682838181FFC8C1EA
:1054C000CE0101965C01F7019381F30193FD859173
:1054D00093FF81913F01882309F453C1853239F448
:1054E00093FD859193FF81913F01853229F4B701A6
:1054F00090E00E94412CE7CF912C212C312CFFE130
:10550000F31538F08B3211F190F4803209F18332C7
:1055100029F137FC3CC020ED280F2A3050F536FE2B
:1055200020C08AE0989E200D1124922E06C08D3254
:1055300091F0803371F7689430F8F30193FD859111
:1055400093FF81913F018111DACF21C0689431F836
:10555000689432F8F2CF689433F8EFCF689434F857
:10556000ECCFEAE02E9E200D1124222E689435F80F
:10557000E4CF8E3229F436FC04C1689436F8DDCFCE
:105580008C3619F4689437F8D8CF8836B1F2982F52
:105590009F7D95549330E0F08336A1F18337C1F1BC
:1055A000833509F063C02801F2E04F0E511CF80169
:1055B000C080D180692D70E036FC02C06FEF7FEFB4
:1055C000C6010E942B2C4C01689437F882010AC056
:1055D0000C5F1F4FFFE3F98388248394912C6501AE
:1055E000E89437F833FE2DC0522C8114910471F5E4
:1055F000552009F468CFB70180E290E00E94412C69
:105600005A94F6CFF801808189830E5F1F4FE4CF53
:105610002801F2E04F0E511CF801C080D180692DA5
:1056200070E036FC02C06FEF7FEFC6010E94362C9F
:105630004C018201D5CFB70180E290E00E94412C5D
:105640002A942814190409F0B0F7CECFF60137FCDC
:10565000859137FE81916F01B70190E00E94412C46
:1056600051105A94F1E08F1A9108BFCF843619F087
:10567000893609F077C0F80137FE6BC0608171810F
:10568000828193810C5F1F4FF32DFF763F2E97FF92
:1056900009C090958095709561957F4F8F4F9F4F72
:1056A000689437F82AE030E0A5010E94712CC82EDA
:1056B000CA188C2C432C36FE0CC0E89440F8C91450
:1056C00040F434FE05C032FC03C0F32DFE7E4F2EA5
:1056D000892C44FE95C0FE01EC0DF11D80818033C4
:1056E00009F087C0242D297E422E842D8870582EE3
:1056F00043FC95C040FE8FC09C2C821418F42C0CE7
:10570000922C981844FE91C0B70180E390E00E946B
:10571000412C42FE09C088E790E041FE02C088E5C6
:1057200090E0B7010E94412CC91408F48AC0CA94C1
:10573000D12C9FEFC91AD90ACA0CDB1CF601829141
:105740006F01B70190E00E94412CAC14BD04B1F789
:105750004FCF60817181072E000C880B990B0E5F73
:105760001F4F92CFD32CE894D4F82AE030E085374D
:1057700039F1232D297FD22E8F3601F148F4883557
:10578000A9F0F701868197812B96E2E10C94EB2C2E
:10579000803749F08837A9F7D4FE02C06894D2F860
:1057A00020E130E00DC06894D4F8F6CF34FE03C099
:1057B000822F8660D82E20E132E002C028E030E05F
:1057C000F801D7FE0FC060817181828193810C5FE7
:1057D0001F4FA5010E94712CC82ECA183D2CE894B9
:1057E00037F867CF6081718190E080E00E5F1F4FD6
:1057F000F0CF42FC02C0839478CF8394839475CF1A
:10580000842D867809F471CFF6CFB70180E290E05D
:105810000E94412C83948214C0F3512C73CF522CDC
:105820005818821408F46ECFF8CF842D867809F4C6
:105830007BCF8BE241FE80E247FC8DE2B70190E036
:1058400071CFB70180E390E00E94412C9A946CCF15
:105850008FEF9FEF99CFFC010590615070400110D0
:10586000D8F7809590958E0F9F1F0895FC01615089
:10587000704001900110D8F7809590958E0F9F1F72
:1058800008950F931F93CF93DF93182F092FEB01E8
:105890008B8181FD09C01FEF0FEF812F902FDF91CA
:1058A000CF911F910F91089582FF14C02E813F81E7
:1058B0008C819D81281739073CF4E881F981CF015B
:1058C00001969983888310838E819F8101969F839F
:1058D0008E83E3CFE885F985812F0995892BA1F384
:1058E000DACFFA01AA27283051F1203181F1E8946A
:1058F0006F936E7F6E5F7F4F8F4F9F4FAF4FB1E0C3
:105900003ED0B4E03CD0670F781F891F9A1FA11DBD
:10591000680F791F8A1F911DA11D6A0F711D811DBE
:10592000911DA11D20D009F468943F912AE0269F83
:1059300011243019305D3193DEF6CF010895462FE2
:105940004770405D4193B3E00FD0C9F7F6CF462FC3
:105950004F70405D4A3318F0495D31FD405241932C
:1059600002D0A9F7EACFB4E0A695979587957795E9
:105970006795BA95C9F700976105710508959B0170
:10598000AC010A2E06945795479537952795BA95F9
:10599000C9F7620F731F841F951FA01D08952F92D2
:1059A0003F924F925F926F927F928F929F92AF92AF
:1059B000BF92CF92DF92EF92FF920F931F93CF93FC
:1059C000DF93CDB7DEB7CA1BDB0B0FB6F894DEBF93
:1059D0000FBECDBF09942A88398848885F846E84B9
:1059E0007D848C849B84AA84B984C884DF80EE8003
:1059F000FD800C811B81AA81B981CE0FD11D0FB60C
:105A0000F894DEBF0FBECDBFED01089512E0C7EFE1
:105A1000D2E004C0FE010E94F3282196C83FD107BE
:065A2000C9F7F894FFCF66
:105A2600100001000000000094018000100020001A
:105A360040008000000100020004000000004D0646
:105A4600EE0D6D066C06A62125640048656C6C6F2C
:105A56002E2053687574746572205465737465726C
:0C5A6600204C454420305F305F310000D0
:00000001FF
